{
  "contractName": "ideaNet",
  "abi": [
    {
      "inputs": [],
      "stateMutability": "nonpayable",
      "type": "constructor"
    },
    {
      "anonymous": false,
      "inputs": [
        {
          "indexed": false,
          "internalType": "uint256",
          "name": "id",
          "type": "uint256"
        },
        {
          "indexed": false,
          "internalType": "string",
          "name": "hash",
          "type": "string"
        },
        {
          "indexed": false,
          "internalType": "string",
          "name": "title",
          "type": "string"
        },
        {
          "indexed": false,
          "internalType": "address",
          "name": "author",
          "type": "address"
        }
      ],
      "name": "IdeaUploaded",
      "type": "event"
    },
    {
      "inputs": [],
      "name": "ideaCount",
      "outputs": [
        {
          "internalType": "uint256",
          "name": "",
          "type": "uint256"
        }
      ],
      "stateMutability": "view",
      "type": "function",
      "constant": true
    },
    {
      "inputs": [
        {
          "internalType": "uint256",
          "name": "",
          "type": "uint256"
        }
      ],
      "name": "ideas",
      "outputs": [
        {
          "internalType": "uint256",
          "name": "id",
          "type": "uint256"
        },
        {
          "internalType": "string",
          "name": "hash",
          "type": "string"
        },
        {
          "internalType": "string",
          "name": "title",
          "type": "string"
        },
        {
          "internalType": "address",
          "name": "author",
          "type": "address"
        }
      ],
      "stateMutability": "view",
      "type": "function",
      "constant": true
    },
    {
      "inputs": [],
      "name": "name",
      "outputs": [
        {
          "internalType": "string",
          "name": "",
          "type": "string"
        }
      ],
      "stateMutability": "view",
      "type": "function",
      "constant": true
    },
    {
      "inputs": [
        {
          "internalType": "string",
          "name": "_ideaHash",
          "type": "string"
        },
        {
          "internalType": "string",
          "name": "_title",
          "type": "string"
        }
      ],
      "name": "uploadIdea",
      "outputs": [],
      "stateMutability": "nonpayable",
      "type": "function"
    }
  ],
  "bytecode": "0x6080604052600080556040518060400160405280600781526020017f696465614e65740000000000000000000000000000000000000000000000000081525060019080519060200190610053929190610066565b5034801561006057600080fd5b5061016a565b82805461007290610138565b90600052602060002090601f01602090048101928261009457600085556100db565b82601f106100ad57805160ff19168380011785556100db565b828001600101855582156100db579182015b828111156100da5782518255916020019190600101906100bf565b5b5090506100e891906100ec565b5090565b5b808211156101055760008160009055506001016100ed565b5090565b7f4e487b7100000000000000000000000000000000000000000000000000000000600052602260045260246000fd5b6000600282049050600182168061015057607f821691505b6020821081141561016457610163610109565b5b50919050565b6109aa806101796000396000f3fe608060405234801561001057600080fd5b506004361061004c5760003560e01c806306fdde03146100515780630b5f20bd1461006f57806395b538371461008d578063ece4578b146100c0575b600080fd5b6100596100dc565b6040516100669190610597565b60405180910390f35b61007761016a565b60405161008491906105d2565b60405180910390f35b6100a760048036038101906100a2919061062d565b610170565b6040516100b7949392919061069b565b60405180910390f35b6100da60048036038101906100d59190610823565b6102d0565b005b600180546100e9906108ca565b80601f0160208091040260200160405190810160405280929190818152602001828054610115906108ca565b80156101625780601f1061013757610100808354040283529160200191610162565b820191906000526020600020905b81548152906001019060200180831161014557829003601f168201915b505050505081565b60005481565b6002602052806000526040600020600091509050806000015490806001018054610199906108ca565b80601f01602080910402602001604051908101604052809291908181526020018280546101c5906108ca565b80156102125780601f106101e757610100808354040283529160200191610212565b820191906000526020600020905b8154815290600101906020018083116101f557829003601f168201915b505050505090806002018054610227906108ca565b80601f0160208091040260200160405190810160405280929190818152602001828054610253906108ca565b80156102a05780601f10610275576101008083540402835291602001916102a0565b820191906000526020600020905b81548152906001019060200180831161028357829003601f168201915b5050505050908060030160009054906101000a900473ffffffffffffffffffffffffffffffffffffffff16905084565b60008251116102de57600080fd5b60008151116102ec57600080fd5b600073ffffffffffffffffffffffffffffffffffffffff163373ffffffffffffffffffffffffffffffffffffffff16141561032657600080fd5b6000808154809291906103389061092b565b9190505550604051806080016040528060005481526020018381526020018281526020013373ffffffffffffffffffffffffffffffffffffffff1681525060026000805481526020019081526020016000206000820151816000015560208201518160010190805190602001906103b092919061045b565b5060408201518160020190805190602001906103cd92919061045b565b5060608201518160030160006101000a81548173ffffffffffffffffffffffffffffffffffffffff021916908373ffffffffffffffffffffffffffffffffffffffff1602179055509050507f2e6b7081e38f4130163d53bcfdce1f2aaa89c12402bf89eb1801f223463f0b4d60005483833360405161044f949392919061069b565b60405180910390a15050565b828054610467906108ca565b90600052602060002090601f01602090048101928261048957600085556104d0565b82601f106104a257805160ff19168380011785556104d0565b828001600101855582156104d0579182015b828111156104cf5782518255916020019190600101906104b4565b5b5090506104dd91906104e1565b5090565b5b808211156104fa5760008160009055506001016104e2565b5090565b600081519050919050565b600082825260208201905092915050565b60005b8381101561053857808201518184015260208101905061051d565b83811115610547576000848401525b50505050565b6000601f19601f8301169050919050565b6000610569826104fe565b6105738185610509565b935061058381856020860161051a565b61058c8161054d565b840191505092915050565b600060208201905081810360008301526105b1818461055e565b905092915050565b6000819050919050565b6105cc816105b9565b82525050565b60006020820190506105e760008301846105c3565b92915050565b6000604051905090565b600080fd5b600080fd5b61060a816105b9565b811461061557600080fd5b50565b60008135905061062781610601565b92915050565b600060208284031215610643576106426105f7565b5b600061065184828501610618565b91505092915050565b600073ffffffffffffffffffffffffffffffffffffffff82169050919050565b60006106858261065a565b9050919050565b6106958161067a565b82525050565b60006080820190506106b060008301876105c3565b81810360208301526106c2818661055e565b905081810360408301526106d6818561055e565b90506106e5606083018461068c565b95945050505050565b600080fd5b600080fd5b7f4e487b7100000000000000000000000000000000000000000000000000000000600052604160045260246000fd5b6107308261054d565b810181811067ffffffffffffffff8211171561074f5761074e6106f8565b5b80604052505050565b60006107626105ed565b905061076e8282610727565b919050565b600067ffffffffffffffff82111561078e5761078d6106f8565b5b6107978261054d565b9050602081019050919050565b82818337600083830152505050565b60006107c66107c184610773565b610758565b9050828152602081018484840111156107e2576107e16106f3565b5b6107ed8482856107a4565b509392505050565b600082601f83011261080a576108096106ee565b5b813561081a8482602086016107b3565b91505092915050565b6000806040838503121561083a576108396105f7565b5b600083013567ffffffffffffffff811115610858576108576105fc565b5b610864858286016107f5565b925050602083013567ffffffffffffffff811115610885576108846105fc565b5b610891858286016107f5565b9150509250929050565b7f4e487b7100000000000000000000000000000000000000000000000000000000600052602260045260246000fd5b600060028204905060018216806108e257607f821691505b602082108114156108f6576108f561089b565b5b50919050565b7f4e487b7100000000000000000000000000000000000000000000000000000000600052601160045260246000fd5b6000610936826105b9565b91507fffffffffffffffffffffffffffffffffffffffffffffffffffffffffffffffff821415610969576109686108fc565b5b60018201905091905056fea264697066735822122093a1b8f05f2a03f0fe6d51b419445464009b3a196ccc1b977f37568c78542c1f64736f6c634300080b0033",
  "immutableReferences": {},
  "source": "pragma solidity ^0.8.11;\n\ncontract ideaNet {\n  uint public ideaCount = 0;\n  string public name = \"ideaNet\";\n  mapping(uint => Idea) public ideas;\n\n  struct Idea {\n    uint id;\n    string hash;\n    string title;\n    address author;\n  }\n\n  event IdeaUploaded(\n    uint id,\n    string hash,\n    string title,\n    address author\n  );\n\n  constructor() public {\n  }\n\n  function uploadIdea(string memory _ideaHash, string memory _title) public {\n    // Make sure the idea hash exists\n    require(bytes(_ideaHash).length > 0);\n    // Make sure idea title exists\n    require(bytes(_title).length > 0);\n    // Make sure uploader address exists\n    require(msg.sender!=address(0));\n\n    // Increment idea id\n    ideaCount ++;\n\n    // Add idea to the contract\n    ideas[ideaCount] = Idea(ideaCount, _ideaHash, _title, msg.sender);\n    // Trigger an event\n    emit IdeaUploaded(ideaCount, _ideaHash, _title, msg.sender);\n  }\n}\n",
  "sourcePath": "/Users/ashishmishra/cchome/dapp/ideaApp/dtube/src/contracts/ideaNet.sol",
  "compiler": {
    "name": "solc",
    "version": "0.8.11+commit.d7f03943.Emscripten.clang"
  },
  "schemaVersion": "3.4.4",
  "updatedAt": "2022-02-14T10:01:35.048Z",
  "networkType": "ethereum",
  "devdoc": {
    "kind": "dev",
    "methods": {},
    "version": 1
  },
  "userdoc": {
    "kind": "user",
    "methods": {},
    "version": 1
  }
}